:1000000012C02CC02BC02AC029C028C028C026C0BE
:1000100025C024C023C0FFC021C027C11FC01EC0EF
:100020001DC01CC01BC011241FBECFE5D4E0DEBF25
:10003000CDBF10E0A0E6B0E0E2EEF2E002C0059035
:100040000D92A839B107D9F710E0A8E9B0E001C0D6
:100050001D92A23AB107E1F731D141C1D1CF1F9230
:100060000F920FB60F9211242F933F934F938F93BC
:100070009F93AF93BF93EF93FF93809198009091DC
:10008000990018161906A4F4019747E0489F9001BB
:10009000499F300D1124E0919C00F0919D00E20FEA
:1000A000F31FA281B3819C918481809589238C93D5
:1000B000809198009091990020919A0030919B0036
:1000C0008217930704F547E0489F9001499F300D40
:1000D0001124E0919C00F0919D00E20FF31F8581B7
:1000E00096819BBD8ABDA281B3818C919481892B1D
:1000F0008C9380919800909199000196909399002B
:100100008093980008C080EF9DE29BBD8ABD10924D
:10011000990010929800FF91EF91BF91AF919F913C
:100120008F914F913F912F910F900FBE0F901F9085
:10013000189518161906C4F420919A0030919B0066
:10014000821793078CF447E0489F9001499F300D38
:100150001124E0919C00F0919D00E20FF31F70E0EC
:1001600061507F4F7683658308950F931F93CF93DC
:10017000DF9390939D0080939C0070939B0060930D
:100180009A0000E010E0C0E0D0E012C0E0919C00D6
:10019000F0919D00E00FF11FA081B1818C919481BD
:1001A000892B8C9360E8CE01C4DF2196095F1F4F35
:1001B00080919A0090919B00C817D9073CF32EB507
:1001C0002B602EBD9093990080939800DF91CF9182
:1001D0001F910F91089510BC80E889B98AB1886990
:1001E0008AB980B5846080BD08955F9BFECF2CB135
:1001F000FC01208308955D9BFECFFC0180818CB9BA
:1002000008959093A1008093A000089590939F007B
:1002100080939E0008951F920F920FB60F921124A3
:100220002F933F934F935F936F937F938F939F93FE
:10023000AF93BF93EF93FF93E091A000F091A100E3
:10024000309711F08CB10995FF91EF91BF91AF916B
:100250009F918F917F916F915F914F913F912F91DE
:100260000F900FBE0F901F9018951F920F920FB610
:100270000F9211242F933F934F935F936F937F932C
:100280008F939F93AF93BF93EF93FF93E0919E0063
:10029000F0919F00309709F00995FF91EF91BF9180
:1002A000AF919F918F917F916F915F914F913F910E
:1002B0002F910F900FBE0F901F9018952FEF83ED89
:1002C00090E3215080409040E1F700C0000068E0DA
:1002D00070E080E690E049DF7EDF7894FFCFF8940D
:0202E000FFCF4E
:1002E20037003800010000370032002000003700DC
:1002F2003200400000370032008000003700380032
:1003020002000037003800040000370038000800FF
:08031200003700380010000064
:00000001FF
